:1000000078C10000A7C10000A5C10000A3C1000085
:10001000A1C100009FC100009DC100009BC1000064
:1000200099C1000097C1000095C1000093C1000074
:1000300091C100008FC100008DC100008BC1000084
:1000400089C1000087C1000085C1000083C1000094
:1000500081C100007FC100007DC100000C947823A5
:1000600079C100000C946F270C94A52773C1000080
:1000700071C100006FC100006DC100006BC10000C4
:1000800069C1000067C1000065C1000063C10000D4
:100090000C94FB270C9431285DC100005BC100006B
:1000A00059C1000057C1000055C1000053C10000F4
:1000B00051C100004FC100004DC100004BC1000004
:1000C00049C1000047C100000C940B150C9487280F
:1000D0000C94BD283FC100000C9413290C944929AD
:1000E00039C10000001D3A2774694E53E8F5D2CF9C
:1000F0009C81A6BBCDD0F7EAB9A4839E25381F0208
:10010000514C6B76879ABDA0F3EEC9D46F725548F7
:100110001B06213C4A57706D3E230419A2BF9885E7
:10012000D6CBECF1130E2934677A5D40FBE6C1DCD7
:100130008F92B5A8DEC3E4F9AAB7908D362B0C11C7
:10014000425F78659489AEB3E0FDDAC77C61465BB7
:100150000815322F5944637E2D30170AB1AC8B96A7
:10016000C5D8FFE2263B1C01524F6875CED3F4E997
:10017000BAA7809DEBF6D1CC9F82A5B8031E392487
:10018000776A4D50A1BC9B86D5C8EFF24954736E77
:100190003D20071A6C71564B1805223F8499BEA367
:1001A000F0EDCAD735280F12415C7B66DDC0E7FA57
:1001B000A9B4938EF8E5C2DF8C91B6AB100D2A3747
:1001C00064795E43B2AF8895C6DBFCE15A47607D37
:1001D0002E3314097F6245580B16312C978AADB027
:1001E000E3FED9C400000A0B02090C0D0E08070338
:1001F00004010000000000000000000000000000FA
:1002000000000000000000000000000000000000EE
:1002100012111000000000000000000000000000AB
:100220000000000000000000000001021020200873
:100230000810204010204080020102010804020141
:1002400001020408102040808040201008040201B0
:100250008004020180402010080402010804020109
:100260000102040810204080010204081020408090
:1002700005050505070508080808020202020A0A22
:100280000808040404040101010101010101030340
:10029000030303030303040707070C0C0C0C0C0CEB
:1002A0000C0C0202020206060606060606060B0BE8
:1002B0000B0B0B0B0B0B00002200250028002B0062
:1002C0002E003100340002010000050108010B017D
:1002D00000002100240027002A002D0030003300F8
:1002E00001010000040107010A01CE275A28E6286F
:1002F000722911241FBECFEFD1E2DEBFCDBF00E0D7
:100300000CBF13E0A0E0B2E0E0EFF6E500E00BBFC9
:1003100002C007900D92AE3BB107D9F728E0AEEBD3
:10032000B3E001C01D92A035B207E1F711E0C9E7C3
:10033000D1E000E006C021970109802FFE010E9454
:10034000022AC537D10780E00807A9F70E942F21AC
:100350000C94762B55CE0895CF92DF92EF92FF92B8
:10036000CF93882351F16A017B01CFEFC80F20E0C2
:1003700030E0A901CB01B6010E942A2287FF11C0FB
:10038000C701B60190580E9433229B01AC016C2F2B
:1003900070E090E080E0CF91FF90EF90DF90CF9001
:1003A000B2C0C701B6010E942E228C2FCF91FF90C0
:1003B000EF90DF90CF900C94A224CF91FF90EF901C
:1003C000DF90CF9008950F931F938B019C0183E0E2
:1003D00036952795179507958A95D1F702541C4FA6
:1003E000462F477021E030E0F90102C0EE0FFF1FF9
:1003F0004A95E2F7AF01F80120812423CB01019651
:10040000211102C090E080E01F910F9108950F9399
:100410001F938B019C0183E03695279517950795CF
:100420008A95D1F7677081E090E001C0880F6A95E6
:10043000EAF7F801E254FC4F2081452B31F4809516
:10044000822380831F910F910895822BFACF2F92E0
:100450003F924F925F926F927F928F929F92AF9254
:10046000BF92CF92DF92EF92FF920F931F93CF93A1
:10047000DF93D62EC72E782E692E49015A01280106
:1004800061E08D2D0E94DC25CD2DDC2D8E010F5FCE
:100490001F4FA8016D2D7C2D872D962DB8DF20E0F4
:1004A00030E0A901C201B7010E941123181664F4BB
:1004B000C201B7010E9433222B01C501B4010E9481
:1004C0003322A201CE0123D0C801DF91CF911F9129
:1004D0000F91FF90EF90DF90CF90BF90AF909F90E3
:1004E0008F907F906F905F904F903F902F900895E6
:1004F000882341F08150682F70E090E080E050E068
:1005000040E085CF0895862FB9010C94A2249C0168
:10051000FC01EC51FE4FE491E150E231E0F4F0E0F7
:100520008827EA56FD4F8F4F0C94022AA802AF028B
:10053000B202C902DE02AB02F302FF0203031A0396
:100540002F0344035B037003AB0285039C03B103D9
:1005500084B5806884BD60E0822F0C94182684B531
:100560008062F8CF809180008C7F826080938000D1
:1005700080918100807E8061682B60938100509320
:10058000870040938600809180008068809380007F
:10059000E2CF809180008C7F826080938000809188
:1005A0008100807E8061682B60938100509387007A
:1005B00040938600809180008062E8CF8091800027
:1005C0008C7F82608093800080918100807E80613A
:1005D000682B609381005093870040938600809140
:1005E00080008860D3CF8091B00080688093B00095
:1005F0008091B100887F682B6093B100ACCF80916F
:10060000B0008062F3CF809190008C7F82608093F5
:10061000900080919100807E8061682B60939100B2
:10062000509397004093960080919000806880934B
:10063000900091CF809190008C7F82608093900099
:1006400080919100807E8061682B6093910050932F
:10065000970040939600809190008062E8CF80914F
:1006600090008C7F82608093900080919100807ECA
:100670008061682B6093910050939700409396009F
:10068000809190008860D3CF8091A0008C7F8260A1
:100690008093A0008091A100807E8061682B609390
:1006A000A1005093A7004093A6008091A00080680D
:1006B0008093A00050CF8091A0008C7F82608093B7
:1006C000A0008091A100807E8061682B6093A100D2
:1006D0005093A7004093A6008091A0008062E8CFCD
:1006E0008091A0008C7F82608093A0008091A10007
:1006F000807E8061682B6093A1005093A700409397
:10070000A6008091A0008860D3CF809120018C7FCB
:1007100082608093200180912101807E8061682B1E
:10072000609321015093270140932601809120017D
:100730008068809320010FCF809120018C7F8260A0
:100740008093200180912101807E8061682B6093DD
:10075000210150932701409326018091200180625E
:10076000E8CF809120018C7F82608093200180916E
:100770002101807E8061682B6093210150932701C5
:1007800040932601809120018860D3CFCF93DF93DF
:10079000882349F0EB0181500E947F24998388834C
:1007A000DF91CF910895FB0111821082F9CF0F9351
:1007B0001F938B019C0183E036952795179507952C
:1007C0008A95D1F709531C4F462F477021E030E03E
:1007D000F90102C0EE0FFF1F4A95E2F7AF01F801E1
:1007E00020812423CB010196211102C090E080E0FA
:1007F0001F910F9108950F931F938B019C0183E02C
:1008000036952795179507958A95D1F7677081E0FA
:1008100090E001C0880F6A95EAF7F801E953FC4FB0
:100820002081452B31F48095822380831F910F9185
:100830000895822BFACFCF92DF92EF92FF92CF935F
:10084000DF936B017C0160E086E3C816D104E1040C
:10085000F10490F486E38C0D0E94DC25E6012196DC
:10086000AE01C701B601C7DFCE01DF91CF91FF9086
:10087000EF90DF90CF9008958C2DEECF882341F03C
:100880008150682F70E090E080E050E040E0B3CF0E
:1008900008954F925F926F927F928F929F92AF9244
:1008A000BF92CF92DF92EF92FF920F931F93CF935D
:1008B000DF931F921F92CDB7DEB7C0908A02D0900F
:1008C0008B02E0908C02F0908D02A701960160915E
:1008D00040077091410780914207909143070E9421
:1008E0002A22882341F0C0924007D0924107E0922B
:1008F0004207F092430766E370E080E090E057DF44
:1009000090933F0780933E0743E050E0BE016F5F46
:100910007F4F3CDF69817A8190E080E00E945F2216
:10092000209192023091930240919402509195024D
:100930000E94152360938A0770938B0780938C071E
:1009400090938D072091A2023091A3024091A402BE
:100950005091A5020E94112318160CF05AC18091E3
:100960008E0290918F02A0919002B091910280939B
:100970008E0790938F07A0939007B0939107609193
:1009800034077091350780913607909137071BDD4A
:100990008C019093330780933207C0908E07D090DC
:1009A0008F07E0909007F090910720E030E04FE74C
:1009B00053E4C701B6010E942A2287FF50C120E0FC
:1009C00030E0A901C701B6010E94112318160CF0EE
:1009D0004DC1B701A601C801BFDC82E090E00E94D2
:1009E0009514E0914008F091410840815181628165
:1009F000738190E080E00E949114609135087091BD
:100A0000360880913708909138080E945F2220E0D4
:100A100030E040E85FE40E9415236B017C016091A7
:100A200031087091320880913308909134080E9407
:100A30005F229B01AC01C701B6010E94C6212DECCB
:100A40003CEC4CEC5DE30E941523AB01BC0181E062
:100A500090E00E9491148090390890903A08A090FC
:100A60003B08B0903C0820E030E040E85FEBC50177
:100A7000B4010E942A220091400810914108882365
:100A800019F1F801C080D180E280F380A7019601BE
:100A9000C501B4010E94C5214B015C0120E030E09A
:100AA00040E054E3C701B6010E9415239B01AC014D
:100AB000C501B4010E941123181634F08BEA92E0AC
:100AC000909393078093920780913F08882331F099
:100AD0008BEA92E09093930780939207C090250849
:100AE000D0902608E0902708F0902808FFEFCF1A52
:100AF000DF0AEF0AFF0AC0922508D0922608E0928A
:100B00002708F0922808C114D104E104F10499F4F3
:100B10008091290890912A08A0912B08B0912C0867
:100B20000196A11DB11D8093290890932A08A093D6
:100B30002B08B0932C0880902D0890902E08A09040
:100B40002F08B09030086091290870912A08809190
:100B50002B0890912C080E945F22A50194010E940D
:100B6000152320E030E040E85FE40E9415232B01CC
:100B70003C01C701B6010E945F22A50194010E94B9
:100B800015239B01AC01C301B2010E94C621F801EB
:100B900060837183828393838091310890913208BE
:100BA000A0913308B09134080196A11DB11D809326
:100BB000310890933208A0933308B0933408892BFE
:100BC0008A2B8B2B99F48091350890913608A0914F
:100BD0003708B09138080196A11DB11D80933508E2
:100BE00090933608A0933708B09338080F900F9071
:100BF000DF91CF911F910F91FF90EF90DF90CF90F9
:100C0000BF90AF909F908F907F906F905F904F902C
:100C10000895E0914008F0914108209196023091AA
:100C2000970240919802509199026081718182816E
:100C300093810E942A2287FF09C080919A02909195
:100C40009B02A0919C02B0919D0291CE80919E0248
:100C500090919F02A091A002B091A10288CEC12CD8
:100C6000D12C8FE7E82E83E4F82EB3CEC12CD12C03
:100C70007601AFCE8F929F92AF92BF92DF92EF92AA
:100C8000FF920F931F93CF93DF93E2E9F7E088EB96
:100C9000DF011D928A95E9F78DE398E097838683BB
:100CA000C0E4D8E0D093D307C093D2070DE218E098
:100CB000158B048BF093FD07E093FC07F583E48329
:100CC00021E030E0DC012D933C938FEB92E09387A1
:100CD000828722E438E03983288340E050E060E8EE
:100CE0007FEB4093390850933A0860933B08709328
:100CF0003C084DEC5CEC6CEC7DE3D8014D935D93CE
:100D00006D937C931397C3E1D8E084EA98E7A9E652
:100D1000BFE888839983AA83BB8383EC97E1A8EB20
:100D2000B6E08093170890931808A0931908B09321
:100D30001A088DEA94E7A7EBBDEA80931B0890930D
:100D40001C08A0931D08B0931E0886ED91E7A8E249
:100D5000BFE180931F0890932008A0932108B093CF
:100D60002208AAEEB3E0B383A283E4EEF3E0119687
:100D7000FC93EE9381ED92E0918380839383828351
:100D80009583848383E298E015969C938E931497C1
:100D90001396DC93CE93129717963C932E93169747
:100DA000EAE8F7E028E0DF011D922A95E9F7CAE2B8
:100DB000D7E020E6FE0111922A95E9F7EAEDF3E08B
:100DC0002AE0DF011D922A95E9F7E0EDF3E0DC016E
:100DD000ED93FC9381E190E09183808388E692E03B
:100DE0009383828386E492E09583848382E192E018
:100DF0009783868386E092E091878087DD24D39471
:100E0000D092880780918A0290918B02A0918C02E7
:100E1000B0918D028E8B9F8BA88FB98F812C912CD6
:100E2000540183948F86988AA98ABA8A66E370E00F
:100E300080E090E000DD9D8B8C8BDB8A1882D09265
:100E4000890722E32AA793E39BA784E38CA785E382
:100E50008DA786E38EA787E38FA788E388AB89E316
:100E600089AB81E38AAB30E33BAB8CAB8DAB8EAB14
:100E70002FAB88AF99AF84E597E09F838E838DE099
:100E800090E0A0E0B0E08A879B87AC87BD871D8299
:100E900089829A82AB82BC82E12CF12C8701A80165
:100EA00097016DE070E080E090E0D1DA9987888763
:100EB0006A857B858C859D8586DA998788874BDA5C
:100EC000DD82DF91CF911F910F91FF90EF90DF9026
:100ED000BF90AF909F908F900895809138078111B7
:100EE0001DC081E0809338078091390790913A07BF
:100EF000A0913B07B0913C070197A105B10571F4A2
:100F000080913D07882351F066E370E080E090E037
:100F10004EDC90933F0780933E07B0DC80912A0718
:100F2000811132C081E080932A0780912B07909134
:100F30002C07A0912D07B0912E070197A105B105AF
:100F400019F580912F078823F9F06091340770918B
:100F50003507809136079091370735DA909333073C
:100F60008093320740E050E0BA01F6D9609134072F
:100F700070913507809136079091370724DA909366
:100F8000330780933207B4CA0895EF92FF920F930C
:100F90001F93CF93DF93EA01F901DC011496ED90E2
:100FA000FC90159712964D915C9113974E0D5F1D15
:100FB0002881398118960D911C91199702171307F2
:100FC00030F00D911C911197012B09F441C08A0159
:100FD000021B130BDC0118968D919C918E199F09B1
:100FE000800F911F86179707DCF1C901860F971FA5
:100FF0008417950778F47183608333832283158285
:1010000014821782168288819981680F791F7983EB
:10101000688316C01183008333832283601B710BA6
:101020007583648390E080E01616170614F49E2DF5
:101030008F2D96838783D701A60FB71FB983A88307
:1010400080E0DF91CF911F910F91FF90EF90089575
:1010500018968D919C91821B930B861797075CF6CF
:1010600081E0EFCFCF92DF92EF92FF92CF93DF93A9
:101070006B0184E4869FE001879FD00D1124CA5044
:10108000DC4F8AA99BA9009721F00E94D42A1BAAB1
:101090001AAA84E48C9DF0018D9DF00D1124EA5074
:1010A000FC4F86A997A9009711F00E94D42A84E4E6
:1010B0008C9DF0018D9DF00D1124EA50FC4F138A98
:1010C000128A168A178A108E118E128E138E148E23
:1010D000158E168E178E10A211A281E090E093A3B8
:1010E00082A315A214A216A217A210A611A613A6D7
:1010F00012A615A614A616A617A610AA11AA13AA18
:1011000012AA15AA14AA17AA16AA11AE10AE12AEE8
:1011100013AE14AE15AEDF01DE961D921D921D9228
:101120001C921397EE5BFF4F11821082DF91CF91DB
:10113000FF90EF90DF90CF900895CF93DF93FB0166
:10114000DC016D917C91DB011696CD91DC91808163
:10115000918123E0880F991F2A95E1F7AA81BB812D
:10116000A80FB91F8D919C91119724853585220F69
:10117000331FEB016A817B81EB01C20FD31F099002
:10118000D881C02D14962D913C9161E070E0232B05
:1011900011F062E070E0C69F9001C79F300DD69FAE
:1011A000300D1124A085B1852A9FB0012B9F700DB1
:1011B0003A9F700D1124A481B5812A9FF0012B9FC5
:1011C000F00D3A9FF00D11248E0F9F1FFA019183AD
:1011D000808373836283DF91CF9108952F923F9232
:1011E0004F925F926F927F928F929F92AF92BF9237
:1011F000CF92DF92EF92FF920F931F93CF93DF93E3
:1012000000D000D0CDB7DEB7DC011496ED91FC9193
:101210000190F081E02D808591859A838983A28158
:10122000B381BC83AB83FB0181909190A190B1907D
:10123000C12CD12C7601C814D904EA04FB04CCF0EB
:1012400026960FB6F894DEBF0FBECDBFDF91CF91CB
:101250001F910F91FF90EF90DF90CF90BF90AF90D4
:101260009F908F907F906F905F904F903F902F90C6
:1012700008954480558066807780408551856285D9
:101280007385CF0140969E838D83A081B1819D019E
:1012900083E0220F331F8A95E1F7A981BA81129664
:1012A0008D919C91D901A80FB91F2D903C90119759
:1012B0000484F585E02DEE0FFF1F8B819C81E80FE4
:1012C000F91F0190F081E02D14968D919C91892B4E
:1012D00041F581E090E0E89F9001E99F300DF89F93
:1012E000300D1124249F8001259F100D349F100D77
:1012F0001124249DC001259D900D349D900D112435
:10130000A8016D817E81820D931D0E945D2BED8170
:10131000FE81E00FF11F9FEFC91AD90AE90AF90A05
:101320008ACF82E090E0D7CFCF93DF93DB01AA553D
:10133000BD4F2C91222369F024E4269FF001279FC2
:10134000F00D1124EA50FC4FEF0119922A95E9F7AC
:101350001C9224E4269FF001279FF00D1124EA50EF
:10136000FC4F14821582168217821186108613860E
:101370001286118A108A17861686DF91CF9172CE57
:101380002F923F924F925F926F927F928F929F9295
:10139000AF92BF92CF92DF92EF92FF920F931F9383
:1013A000CF93DF9300D000D01F921F92CDB7DEB74E
:1013B00024E4269FF001279FF00D1124EA50FC4FF2
:1013C0000481158126813781012B022B032B09F41F
:1013D000B7C02A016B017C0110E000E0812C912C48
:1013E00054013F019F01285F3F4F3C832B83CF0176
:1013F00004969E838D83AB81BC818D919C91ED8100
:10140000FE81408151816281738184169506A60612
:10141000B706E4F10E94D42AD3011A968D919C91CB
:10142000892B09F07EC084E48C9DD0018D9DB00D88
:101430001124AA50BC4FBC83AB8350968D919C91D4
:101440000E94D42AEB81FC81868597850E94D42A4C
:10145000C701B60107DEC701B60128960FB6F8949A
:10146000DEBF0FBECDBFDF91CF911F910F91FF90D7
:10147000EF90DF90CF90BF90AF909F908F907F9034
:101480006F905F904F903F902F904ECFFC01E00FF8
:10149000F11F92819983A381AA839F83A887312C0E
:1014A000212C2414350464F089819A810E94D42A65
:1014B000EFEF8E1A9E0AAE0ABE0A0C5F1F4F9BCF3B
:1014C000AF81B885ED91FD91B887AF83309759F022
:1014D000848195810E94D42AEF81F885329780819A
:1014E00091810E94D42ABFEF2B1A3B0ADACF800FDA
:1014F000911FFC01848195810E94D42A2B813C811B
:101500002F5F3F4F3C832B83025F1F4FF50180818C
:1015100091812B813C81241535054CF30E94D42AFE
:1015200082CF10E000E01C821B8224E42C9DC001CD
:101530002D9D900D1124DC01A050BC4F5D01E6CF24
:1015400028960FB6F894DEBF0FBECDBFDF91CF91C6
:101550001F910F91FF90EF90DF90CF90BF90AF90D1
:101560009F908F907F906F905F904F903F902F90C3
:10157000089524E4269FF001279FF00D1124EA50DE
:10158000FC4F828993890497029758F485E090E094
:10159000938B828B8FEF9FEFDC01828F938FA48FD1
:1015A000B58F08952F923F924F925F926F927F92E4
:1015B0008F929F92AF92BF92CF92DF92EF92FF9263
:1015C0000F931F93CF93DF93CDB7DEB7AA970FB6D4
:1015D000F894DEBF0FBECDBF9AA389A37E8B6D8B1F
:1015E0001A01098B1A8B2B8B3C8B84E429893A894D
:1015F000829F6001839FD00C112486010A501C4FEA
:1016000089899A89AB89BC89F80180839183A283F7
:10161000B383AB01BC01CD01B3DED601A650BC4FF4
:1016200084E0F10101900D928A95E1F7F4E02F0E2C
:10163000311C64E070E0D80114968D919C910E9459
:101640001E2AF80191878087892B09F0F5C04D8902
:101650005E8969897A898B899C8992DE81E0AA9664
:101660000FB6F894DEBF0FBECDBFDF91CF911F91B3
:101670000F91FF90EF90DF90CF90BF90AF909F9031
:101680008F907F906F905F904F903F902F90089534
:10169000A9A5BAA58D919C91E98DFA8DE80FF91F46
:1016A000F88FEF8BD1018D919C91880F991FA9A183
:1016B000BAA1ED91FC91E80FF91F80819181EF892A
:1016C000F88D91838083D10114962D913D914D9198
:1016D0005C9117972BA33CA34DA35EA362E070E03F
:1016E0008D899E890E941E2AEF89F88D93838283BB
:1016F000892B09F4ACCFF8E02F0E311C412C512C72
:1017000032012BA13CA14DA15EA1421653066406F5
:1017100075069CF02B8D3C8D4D8D5E8D2F5F3F4F60
:101720004F4F5F4F2B8F3C8F4D8F5E8F498D5A8D62
:101730004C5F5F4F5A8F498F90C0610124E0C20E09
:10174000D11CD101ED90FC90EE0CFF1CEF89F88DBF
:1017500082819381E80EF91E68E070E081E090E0FC
:101760000E941E2A8C01D7018D939C93892B09F42A
:101770006ECF84E0F601D80101900D928A95E1F7D1
:10178000B8E02B0E311CF80180819181A281B381D8
:10179000181619061A061B06DCF464E070E00E94B5
:1017A0001E2AD80115969C938E931497892B09F4C1
:1017B0004ECFD12CC12C812C912C5401F801808169
:1017C0009181A281B38188169906AA06BB0634F0DE
:1017D000FFEF4F1A5F0A6F0A7F0A93CFF801E48088
:1017E000F580EC0CFD1C80E1F101DE011196019009
:1017F0000D928A95E1F7F0E12F0E311CA701BE0191
:101800006F5F7F4FA9A1BAA114968D919C9195DC31
:10181000F80186819781D70112962D913C91820F14
:10182000931F97838683BFEF8B1A9B0AAB0ABB0A71
:10183000E4E0CE0ED11CC2CF1A8E198E1B8E1C8EE8
:101840001D8E1E8E18A30F8FA8014C5F5F4F58A7E7
:101850004FA3C80108969AA789A7EFA1F8A5808190
:101860009181A281B3812B8D3C8D4D8D5E8D28178A
:1018700039074A075B070CF40BCF6EE070E08D89E7
:101880009E890E941E2AAF8DB8A11B969C938E93B1
:101890001A97B12CA12CD12CC12CF12CE12C24E4D1
:1018A000E989FA892E9FC0012F9F900D11249C0178
:1018B00020503C4F388F2F8B88248394912C4D8956
:1018C0005E89C416D50654F184E4A989BA898A9F31
:1018D00080018B9F100D11240A501C4FF8011586B2
:1018E0001486C70133E0880F991F3A95E1F70E94EB
:1018F000382AD80151969C938E935097892B09F4DE
:10190000A6CEC701880F991F0E94382AF801978731
:101910008687892B09F49BCE80E0A1CED1014D9022
:101920005D906D907D901D0177FC91CEEF89F88DD3
:10193000008111810A0D1B1DD80111969C928E9277
:10194000411451046104710429F1C2010E94382A32
:10195000F80195838483892B09F479CEF8015382A9
:1019600042828481958197838683918780871386BD
:10197000128681E090E045284628472811F490E03F
:1019800080E0E80EF91EFFEFCF1ADF0A2EE0A20E6C
:10199000B11C95CF15961C921E921497DFCF2F92F3
:1019A0003F924F925F926F927F928F929F92AF92EF
:1019B000BF92CF92DF92EF92FF920F931F93CF933C
:1019C000DF93CDB7DEB76A970FB6F894DEBF0FBED0
:1019D000CDBF9E8B8D8B49015A0184E4829F70019B
:1019E000839FF00C112497012A503C4F6901FB01A1
:1019F00080819181F901958B848BD701A45FBB4FC6
:101A0000FB01349684E001900D928A95E1F7D701AD
:101A1000A05FBB4FFB01389684E001900D928A9540
:101A2000E1F7D701AC5EBB4FFB013C9684E001902F
:101A30000D928A95E1F7D701AC5DBB4FFB01709623
:101A400084E001900D928A95E1F78B010C5E1F4FA7
:101A5000F90186A597A5A0A9B1A918161906DCF564
:101A6000880F991F880F991F0E94382AF60193AB9F
:101A700082AB892B09F4D3C0312C212C412C512C61
:101A800032019601225D3F4F388F2F8BC601C296DF
:101A90009A8F898FF496FC8BEB8BB301A2012FEF09
:101AA000421A520A620A720AEF89F88D8081918186
:101AB000A281B381481759076A077B070CF47BC0E2
:101AC000F60184A995A90E94382AF60197AB86AB46
:101AD000892B09F4A4C0F80180819181A281B3818E
:101AE00024E4289DF001299DF00D1124EA50FC4FBB
:101AF000AC01BD014D7F21E030E0452B462B472B4B
:101B000011F030E020E033A322A324E4289DF0016B
:101B1000299DF00D1124EA50FC4F0197A109B1094C
:101B200021E030E00297A105B10510F030E020E09F
:101B300035A324A3D701A45EBB4FF801349684E0FB
:101B400001900D928A95E1F784E4889DF001899DCA
:101B5000F00D1124EA50FC4F868D978DA0A1B1A104
:101B6000B7FF58C0B095A095909581959F4FAF4F06
:101B7000BF4F82AF93AFA4AFB5AF168E178E10A232
:101B800011A280E06A960FB6F894DEBF0FBECDBFFB
:101B9000DF91CF911F910F91FF90EF90DF90CF9049
:101BA000BF90AF909F908F907F906F905F904F907D
:101BB0003F902F900895E98DFA8D808191819C014D
:101BC000220D331D3A8B298B80E1F801DE0111963D
:101BD00001900D928A95E1F7005F1F4F49895A895C
:101BE000BE016F5F7F4FED89FE8984819581A5DA03
:101BF000EB89FC8980819181E989FA89228133818D
:101C0000820F931FEB89FC8991838083F4E02F0E70
:101C1000311C43CF12AE13AE14AE15AEB2CFC50118
:101C2000B40120DA81E0AECFCF92DF92EF92FF9243
:101C3000CF93DF9310927E0424E4269FF001279F28
:101C4000F00D1124EA50FC4F15A614A630E020E058
:101C5000D12CC12CDF011A96C1E0D0E0C416D50604
:101C6000F4F024E4269FF001279FF00D1124EA50A0
:101C7000FC4F13A612A611AE10AEDF01DE961D9228
:101C80001D921D921C92139782E090E0938B828BA1
:101C9000DF91CF91FF90EF90DF90CF900895ED917D
:101CA000FC911197E20FF31FE280F3801E141F04D2
:101CB00054F4E480F580F782E682F186E0861386AC
:101CC0001286D183C083EFEFCE1ADE0A225F3F4F28
:101CD000C5CF24E4269FF001279FF00D1124EA5080
:101CE000FC4F138A128A4CCB24E4269FF001279FD5
:101CF000F00D1124EA50FC4F8289938981309105BF
:101D0000C8F08530910518F0059769F008958FEFB8
:101D10009FEFDC01828F938FA48FB58F85E090E0D9
:101D2000938B828B08958FEF9FEFDC01828F938FCF
:101D3000A48FB58F089524E4249FD001259FB00D72
:101D40001124AA50BC4F2EE0AC01249FC001259F56
:101D5000900D11241A96ED91FC91E80FF91F81E086
:101D600080937E0482859385918780874085518505
:101D70002681378181E090E04217530711F090E00F
:101D800080E09183808308952F923F924F925F92DB
:101D90006F927F928F929F92AF92BF92CF92DF927B
:101DA000EF92FF920F931F93CF93DF93CDB7DEB7E0
:101DB000C055D1090FB6F894DEBF0FBECDBF9EAFA0
:101DC0008DAF4BA75CA76DA77EA76801790184E45E
:101DD000809FF001819FF00D1124EA50FC4F228575
:101DE000338523963FAF2EAF23978289938902973D
:101DF00061F486A597A5A0A9B1A9892B8A2B8B2B65
:101E0000C9F584E090E0938B828B84E48C9DF00193
:101E10008D9DF00D1124EA50FC4F82899389823008
:101E2000910509F037C282AD93ADA4ADB5AD2224C2
:101E30002394312C181619061A061B060CF42FC20F
:101E4000C05BDF4F0FB6F894DEBF0FBECDBFDF9192
:101E5000CF911F910F91FF90EF90DF90CF90BF90A7
:101E6000AF909F908F907F906F905F904F903F903A
:101E70002F900895848995894DAD5EAD841795079F
:101E800021F606A917A918AE1FAA1BAA1CAA1DAAEB
:101E90001EAA1F01CF018E9627969FAF8EAF279760
:101EA000DF01D2962996BFAFAEAF2997F8962B9651
:101EB000FFAFEEAF2B9791012A5D3F4F2D963FAFBD
:101EC0002EAF2D97A1014E5D5F4F2F965FAF4EAFA6
:101ED0002F970A9761969FAF8EAF61972796EEADC9
:101EE000FFAD279780819181A281B3812BA93CA965
:101EF0004DA95EA9281739074A075B0744F081E01E
:101F000090E0D101D9969C938E93D8977ECF299655
:101F1000AEADBFAD2997ED91FC912FA938ADE20F81
:101F2000F31F428153815AAF49AF50815FAF818126
:101F300021968FAF21972B96AEADBFAD2B978D918C
:101F40009C91892B21F12D96EEADFFAD2D978080D0
:101F50009180A280B3801AAB09AB5FA72196FFAD39
:101F60002197F8AB29AD3AAD36952795369527954B
:101F700025963FAF2EAF25971CAE1BAE2596AEAD76
:101F8000BFAD2597EBADFCADEA17FB070CF149ADF2
:101F90005AAD6FAD21967FAD2197C8010E945D2B90
:101FA00089AD9AAD8C7F080F191F2BA93CA94DA9AB
:101FB0005EA92F5F3F4F4F4F5F4F2BAB3CAB4DABFD
:101FC0005EAB4FA958AD4C5F5F4F58AF4FAB86CF5C
:101FD0002F96AEADBFAD2F978D919C91892B71F14E
:101FE000EFA5F8A94080518062807380A30192011F
:101FF000C501B4010E942A22181664F0A9A9BAA941
:102000002D913D914D915C91C501B4010E94112328
:102010001816BCF1A3019201C501B4010E942A2245
:1020200087FF0CC0E9A9FAA920813181428153813F
:10203000C501B4010E942A22882319F16196AEAD30
:10204000BFAD61978D919C91892B09F445C0EFA597
:10205000F8A94080518062807380A3019201C5017C
:10206000B4010E94112318161CF5A9A9BAA92D9133
:102070003D914D915C91C501B4010E942A22181630
:102080005CF184E48C9DF0018D9DF00D1124EA50EB
:10209000FC4F868D978DA0A1B1A1892B8A2B8B2B0C
:1020A00069F183E090E0938B828B81E090E02CC01B
:1020B000A3019201C501B4010E942A2281110CC022
:1020C000E9A9FAA92081318142815381C501B40176
:1020D0000E942A2287FDD5CF2BAD3CAD2F5F3F4F0D
:1020E0003CAF2BAF49A95AA94C5F5F4F5AAB49ABE4
:1020F0008FA598A9049698AB8FA740CF84E090E075
:10210000938B828B86AD97AD93A782A77ECEEBADE6
:10211000FCAD80819181F401EE0FFF1FEE0FFF1FD8
:10212000E80FF91FA081B1818C9181110AC0FFEFE6
:102130008F1A9F0AAF0ABF0A8DA29EA2AFA2B8A6AD
:102140008FC18330A1F30280F381E02D2FA938AD38
:10215000E20FF31F808191819AAB89AB892B39F310
:102160004F5F5F4F6F4F7F4F49875A876B877C87E1
:102170009E01235E3F4FAE01475D5F4F64E070E01C
:10218000C8010E94C5078111D0C18D819E81AF8198
:10219000B8850496A11DB11D8D839E83AF83B8873A
:1021A0004D8D5E8DBE016B5D7F4F8F8D98A10E941E
:1021B0005D2B8BA19CA1009761F06D8D7E8DA5E2BA
:1021C000B0E0AC0FBD1F6A0F7B1F49A15AA10E944E
:1021D0005D2B1CAA1BAA412C512C3201E9A9FAA99A
:1021E00080819181A281B381481659066A067B06D7
:1021F0000CF09DCFE9A9FAA9848195812BA93CA96E
:10220000280F391F38AB2FA7D90112966D917C91F9
:102210009E01235E3F4FAE01475D5F4FC8010E94A4
:10222000C507811182C1EFA5F8A982819381092E8A
:10223000000CAA0BBB0B4D815E816F817885840FEA
:10224000951FA61FB71F8D839E83AF83B8876081BC
:1022500071814D8D5E8D8F8D98A10E945D2B8BA11C
:102260009CA1009761F0AFA5B8A96D917C912D8DCF
:102270003E8D620F731F49A15AA10E945D2BBFEFD3
:102280004B1A5B0A6B0A7B0AEBA9FCA93496FCABE0
:10229000EBABA4CF312C212C049709F0D1CD8EE0EB
:1022A000EDADFEAD8E9F80018F9F100D1124239602
:1022B0002EAD3FAD2397020F131FD80112964D91FB
:1022C0005C9113974115510509F4BACD16968D917D
:1022D0009C919AA789A780E1FE013196DF011D92AA
:1022E0008A95E9F7C98ADA8AEB8AFC8A21143104D3
:1022F00009F458C084E48C9DF0018D9DF00D1124EB
:10230000EA50FC4FDF01DE968D909D90AD90BC9021
:1023100082AD93ADA4ADB5AD88169906AA06BB06ED
:1023200009F040C0F801848195810084F185E02D99
:10233000349624E0DE01559601900D922A95E1F73E
:102340002D893E89285F3F4F3E8B2D8BD8011896F3
:102350006D917C911997260F371F19963C932E93F8
:10236000189718962D913C911997480F591F241BC7
:10237000350B37FD06C0820F931F19969C938E93E1
:10238000189784E48C9DF0018D9DF00D1124EC5C78
:10239000FB4FB1E08B1A9108A108B10880829182AD
:1023A000A282B3829E012B5E3F4FAE01475D5F4F1D
:1023B00064E170E0C8010E94C5078111B6C08CE0DD
:1023C00090E0A0E0B0E08D839E83AF83B8879E014C
:1023D000235E3F4FAE01475D5F4F64E070E0C80190
:1023E0000E94C5078111A1C080E190E0A0E0B0E0AB
:1023F0008D839E83AF83B8874D8D5E8DBE01655DF5
:102400007F4F8F8D98A10E945D2B8BA19CA100977F
:1024100061F06D8D7E8DEBE2F0E0EC0FFD1F6E0F35
:102420007F1F49A15AA10E945D2B1DA21EA21FA2BF
:1024300018A62DAD3EAD220F331F38AF2FAB24E4CD
:102440002C9DC0012D9D900D11248A509C4FAC01F4
:102450004C5F5F4F5AAF49AFDC011896BCAFABAFD2
:102460008DA09EA0AFA0B8A449855A856B857C85B8
:10247000E9ADFAAD80819181A281B3818816990678
:10248000AA06BB060CF443CE452B462B472B09F47A
:10249000D7CC8AE190E0A0E0B0E089839A83AB8357
:1024A000BC832DAD3EADC901330FAA0BBB0B8D878D
:1024B0009E87AF87B88B4D895E89BE016F5F7F4F66
:1024C0008F89988D0E945D2B8B8D9C8D009761F07C
:1024D0006D897E8941E050E04C0F5D1F640F751FD0
:1024E000498D5A8D0E945D2B89A59AA5D801179612
:1024F0009C938E93169711961C921E92232809F492
:102500009FCC84E48C9DF0018D9DF00D1124EC5C3A
:10251000FB4F80819181A281B3810196A11DB11DE4
:1025200080839183A283B3838BCC232809F088CC4A
:1025300084E48C9DF0018D9DF00D1124EA50FC4F38
:1025400081E090E095A784A785E090E0938B828B53
:1025500077CCCF92DF92EF92FF920F931F9324E4F8
:10256000269FF001279FF00D1124EA50FC4F22898D
:1025700033892115310509F452C06B017C012130EA
:102580003105B1F482A593A59C012F5F3F4F33A77E
:1025900022A7092E000CAA0BBB0B028D138D248DD4
:1025A000358D80179107A207B307C9F5C7013CDB3A
:1025B00084E48C9DF0018D9DF00D1124EA50FC4FB8
:1025C00082899389039759F582A593A59C012F5F72
:1025D0003F4F33A722A7092E000CAA0BBB0B468D39
:1025E000578D60A171A184179507A607B707BCF0A6
:1025F00086AD97AD93A782A784E090E0938B828B02
:1026000082AD93ADA4ADB5AD181619061A061B061A
:1026100034F4EE5BFF4F81E090E0918380831F9163
:102620000F91FF90EF90DF90CF90089524E4269FC4
:10263000F001279FF00D1124EA50FC4F8289938905
:102640000497B1F482A593A5019693A782A7092EBA
:10265000000CAA0BBB0B46895789608D718D8417BE
:102660009507A607B70721F485E090E0938B828B4E
:1026700008952F923F924F925F926F927F928F9226
:102680009F92AF92BF92CF92DF92EF92FF920F9301
:102690001F93CF93DF93CDB7DEB72E970FB6F89485
:1026A000DEBF0FBECDBFDC0149835A836B837C83C1
:1026B000290184E4849FF001859FF00D1124EA50E4
:1026C000FC4F22883388C1010497029708F0D5C0D7
:1026D00011961C921E9213961C921E9212971586AA
:1026E0001486912C812C90E080E08F019F01205F67
:1026F0003F4F38872F833F013CE0630E711CBF01C1
:10270000625F7F4F7A8769873A96FC87EB87EF8114
:10271000F88520813181F30140815181E985FA8575
:10272000A080B180841595050CF445C011965C938A
:102730004E9313963C932E9312971596BC92AE929D
:102740001497452BF9F4F5E02F163104D9F41092C3
:102750007E04F801828D938DA48DB58DAE014F5FFF
:102760005F4F64E070E08F3F9F4FAF4FBF4F09F066
:1027700079C080E290E0F6D469817A818B819C8176
:10278000A201A7DA2E960FB6F894DEBF0FBECDBF1A
:10279000DF91CF911F910F91FF90EF90DF90CF903D
:1027A000BF90AF909F908F907F906F905F904F9071
:1027B0003F902F900895EB85FC8560817181FB012E
:1027C000E80DF91DFE87ED8760817181672B89F522
:1027D000E084F184628173817E836D836681778179
:1027E0006A01E3E0CC0CDD1CEA95E1F72C0D3D1D00
:1027F000440F551F4A0D5B1DFA0191838083F3013D
:10280000408151814F5F5F4F51834083F901F382D3
:10281000E282ED85FE8573876287E616F70670F41F
:102820006E197F09F9017183608315821482178202
:1028300016820196FEE08F0E911C69CFED85FE8514
:10284000C480D5804D815E814C0D5D1D4E195F09A0
:10285000F901518340836C197D0975836483D782A4
:10286000C682E7CF8FE190E07DD4F80113A612A6CF
:1028700081E090E0938B828B85CF1586148611962C
:102880001C921E9213961C921E9212977BCFEF926F
:10289000FF920F931F93CF93DF937C018B01EA018B
:1028A0003DD581111BC08091A8029091A902049787
:1028B000F9F4DF91CF911F910F91FF90EF90089560
:1028C00028ED38EB45E050E060E070E0CB01DCD76C
:1028D000AE01B801C701E6D7C801AFD780917F0428
:1028E00090918004892BF9F68881882349F3DBCF06
:1028F00083E090E09093A9028093A802DACFCF936F
:10290000DF932091A8023091A9022430310531F0E3
:10291000EB01C8D7CE01DF91CF918FC7DF91CF9167
:1029200008950C9450200C9445200C94332095C7A6
:102930000C94D71F089570E060E090E080E0C9C477
:102940000895AF92BF92CF92DF92EF92FF920F93D2
:102950001F93CF93DF931F921F92CDB7DEB75C0119
:102960008B0169017A0190E080E0C114D104E10497
:10297000F10469F40F900F90DF91CF911F910F91A7
:10298000FF90EF90DF90CF90BF90AF9008959C2D77
:102990008D2DC114D10421E0E206F10410F09FEF67
:1029A0008FEF9E012F5F3F4F492F582FB801C50170
:1029B0000E94D9208F3F9807E9F229813A81C21AF3
:1029C000D30AE108F108020F131FCFCF40E855E208
:1029D00060E070E090E080E000C08130910579F027
:1029E0001CF4892B39F008958230910561F003972A
:1029F00071F0089526E086EB94E00C940F2726E012
:102A000083E595E0FACF26E080EF95E0F6CF26E06B
:102A10008DE896E0F2CF1F920F920FB60F9211241D
:102A20000BB60F922F933F934F935F936F937F93C8
:102A30008F939F93AF93BF93EF93FF9386E997EEA6
:102A400090932501809324010E941321FF91EF911F
:102A5000BF91AF919F918F917F916F915F914F91B6
:102A60003F912F910F900BBE0F900FBE0F901F90B4
:102A7000189586E997EE9093250180932401A3E7AA
:102A8000B0E08C918E7F8C93E0E2F1E080818C7FCE
:102A90008083E1E2F1E08081877E808380818460B1
:102AA000808380818C7F80838C9181608C9308955A
:102AB00081E008958F929F92AF92BF92CF92DF9262
:102AC000EF92FF920F931F93CF93DF935C017B01F3
:102AD0008A01C1E0D0E0CE15DF05CCF081E0F50140
:102AE0008083B801C7010E947A20F5019283818317
:102AF00090E080E0DF91CF911F910F91FF90EF90D8
:102B0000DF90CF90BF90AF909F908F9008956E010F
:102B10008FEFC81AD80AFE01EE0FFF1FE00FF11F5A
:102B2000808091808114910469F061E673E0C401B2
:102B30000E946D2B892B41F4CC0FDD1FC00FD11FDC
:102B400019821882E601C7CF64E673E0C4010E94CF
:102B50006D2B892BB9F7EC14FD04A1F36E01E2E0B3
:102B6000CE0ED11CCC0FDD1FC00FD11F19821882D1
:102B70001B821A82E7CF81E894E0089580E00895EF
:102B80000F931F93CF93DF938B01BA01E901198251
:102B900018829801012E000C440B550BFC01818119
:102BA0009281CFDE019641F01983088380E0DF91A6
:102BB000CF911F910F91089581E0F9CF0F931F934B
:102BC000CF93DF931F921F92CDB7DEB7FB018A012F
:102BD000B9019E012F5F3F4FAF01FC0181819281BE
:102BE0000E948E20019669F089819A81F801918373
:102BF000808380E00F900F90DF91CF911F910F9114
:102C0000089581E0F7CFFC0180810895089508952B
:102C100081E0FB01808380E0089508951092A9046B
:102C20000895FC01818192810C947220CF93DF93EF
:102C300000D000D000D01F92CDB7DEB7B0E0A0E04A
:102C400089839A83AB83BC83CB01770FAA0BBB0B21
:102C50008D839E83AF83B8879E01275F3F4FAE0170
:102C60004F5F5F4F68E070E0809198049091990405
:102C700087DF811110C081E029853A852830310530
:102C800009F480E02A960FB6F894DEBF0FBECDBFE0
:102C9000DF91CF91089581E0F5CF0F931F93CF93EC
:102CA000DF931F921F92CDB7DEB78B019E012F5F7E
:102CB0003F4FAC01809198049091990461DF81119C
:102CC0000EC081E029813A812017310709F480E0A4
:102CD0000F900F90DF91CF911F910F91089581E098
:102CE000F7CFCF93DF93EC0110929C0410929B04DA
:102CF0001092A8041092A704AC0160E070E0CB0130
:102D00000E94690EAE0161E070E080E090E00E94F8
:102D1000690E8091980490919904DF91CF917DCFB5
:102D20004F925F926F927F928F929F92AF92BF92DB
:102D3000CF92DF92EF92FF920F931F93CF93DF9387
:102D40001F921F92CDB7DEB78C017C0197FF03C0A5
:102D500087E0E80EF11C23E0F594E7942A95E1F76B
:102D6000C80168E070E00E94CD296C010E5F1F4F22
:102D7000809196049091970480179107D4F48091E4
:102D8000940490919504009731F00E94D42A1092F7
:102D9000970410929604C8010E94382A90939504D3
:102DA00080939404892B09F482C0109397040093B4
:102DB000960410E000E047C1412C512C3201B12CA7
:102DC000A12C950123563B4FAE014F5F5F4F61E051
:102DD00070E08091980490919904F0DE811149C0CF
:102DE000EFEF4E1A5E0A6E0A7E0AF0E94F16FFE513
:102DF0005F06F1E06F06710444F06091A7047091E2
:102E0000A8048DEE90E012DFD7CF89819A81A80EB9
:102E1000B91E8AE0A816B10409F043C049E050E0A9
:102E200070E060E08DE994E00E9405216091A704C4
:102E30007091A804882391F18091A50490E08617F1
:102E4000970781F4BC018EEE90E0F0DE8091A7043C
:102E50009091A804019699279093A8048093A704C1
:102E60000F5F1F4F0E151F050CF4A6CFCD2809F0DC
:102E70007CC090E080E00F900F90DF91CF911F9188
:102E80000F91FF90EF90DF90CF90BF90AF909F9009
:102E90008F907F906F905F904F9008958FEE90E0AD
:102EA000B2CFEAE0AE16B1040CF48BCFDBCF10E06A
:102EB00000E0D8CF0A30110531F549E050E070E06C
:102EC00060E08DE994E00E9405216091A704709173
:102ED000A8048823A9F08091A50490E0861797079D
:102EE00041F6BC018EEE90E0A1DE8091A7049091A6
:102EF000A804019699279093A8048093A704B9CFBA
:102F00008FEE90E02BC00A3011050CF0B2CF980183
:102F100023563B4FAE014F5F5F4F61E070E0809101
:102F20009804909199044ADE8111A3CF89819A81F6
:102F3000080F191FFFEFCF1ADF0AEF0AFF0A80E917
:102F4000C8168FE5D80681E0E806F1040CF4B2CF8C
:102F50006091A7047091A8048DEE90E067DE10E008
:102F600000E0C12CD12C7601D2CFC12CD12C76011E
:102F700010E000E0CCCF412C512C3201B12CA12C1F
:102F8000480193E0880C991C9A95E1F720919404EC
:102F900030919504C501880D991D280F391FAE0188
:102FA0004F5F5F4F61E070E08091980490919904C9
:102FB00005DE81115ECFEFEF4E1A5E0A6E0A7E0AC1
:102FC0006091A7047091A8048DEE90E0F0E94F168F
:102FD000FFE55F06F1E06F0671040CF043C08981E4
:102FE0009A81A80EB91E8AE0A816B10409F041C062
:102FF00049E050E0B40180919404909195040E94BE
:1030000005216091A7047091A804882349F180915B
:10301000940490919504880E991EF401808590E0A7
:103020008617970781F4BC018EEE90E0FFDD80915A
:10303000A7049091A804019699279093A8048093DF
:10304000A7040F5F1F4F0E151F050CF494CFC1147A
:10305000D10409F081C080919404909195040BCF24
:103060008FEE90E0E3DD412C512C3201B12CA12CEC
:103070008DCFFAE0AF16B1040CF488CFE4CF8FEE19
:1030800090E0D4DDF12CE12C812C912C540197019E
:1030900023563B4FAE014F5F5F4F61E070E0809180
:1030A0009804909199048ADD8111E3CE8FEF881AFC
:1030B000980AA80AB80A6091A7047091A8048DEE36
:1030C00090E0E0E98E16EFE59E06E1E0AE06B10481
:1030D000C4F689819A81E80EF91EFAE0EF16F10430
:1030E000A9F549E050E070E060E08DE994E00E94CD
:1030F00005216091A7047091A804882309F4BFCF2B
:103100008091A50490E08617970709F0A4CFBC0131
:103110008EEE90E08BDD83E0000F111F8A95E1F7C2
:103120008091940490919504A6016DE974E0800F5C
:10313000911F0E945D2B8091A7049091A804019695
:1031400099279093A8048093A70485CF8AE0E81676
:10315000F1040CF49CCF7FCF812C912C5401F12CE5
:10316000E12C95CFCF92DF92EF92FF920F931F93B6
:10317000CF93DF931F92CDB7DEB76C017B018A013D
:10318000452B39F0AB0170E060E0C8010E940121DD
:103190008983B701C6014ADD81110DC001151105F2
:1031A00051F0B701C80179DD811105C061E070E01F
:1031B000CE01019672DD0F90DF91CF911F910F919B
:1031C000FF90EF90DF90CF900895CF92DF92EF9233
:1031D000FF92CF93DF9300D000D01F921F92CDB704
:1031E000DEB76B01F12CE12CC982DA82EB82FC8222
:1031F0002D833E834F835887AE014F5F5F4F68E05A
:1032000070E0B0DF28960FB6F894DEBF0FBECDBFDA
:10321000DF91CF91FF90EF90DF90CF9008958F9244
:103220009F92AF92BF92CF92DF92EF92FF920F9355
:103230001F93CF93DF937C01EB01CA01690170DD1D
:103240000097B1F42FEF3FEFA90161E070E0C701F3
:10325000BCDFC1E08C2FDF91CF911F910F91FF90C8
:10326000EF90DF90CF90BF90AF909F908F90089598
:10327000FC0181909190A190B190BF01FCE1EF160B
:10328000F10479F4A5019401CE010E94CF0CC82F5E
:10329000A5019401882369F061E070E0C70195DF22
:1032A000D9CF95018401AB01B601CE010E94D20AAB
:1032B000EECF70E060E0C701DF91CF911F910F91D9
:1032C000FF90EF90DF90CF90BF90AF909F908F9046
:1032D0007CCF0F931F93CF93DF93EC018B014BDCDB
:1032E00090939904809398040097A9F0A801BE01D7
:1032F000E1DBEC01892B49F08091980490919904CD
:1033000085DC1092990410929804CE01DF91CF9140
:103310001F910F910895C0E7D3E0EECF80919804FC
:103320009091990470CC2F923F924F925F926F923E
:103330007F928F929F92AF92BF92CF92DF92EF9245
:10334000FF920F931F93CF93DF93CDB7DEB76997AB
:103350000FB6F894DEBF0FBECDBF20919C04222390
:10336000F1F05B8B4A8B6E877F87888B998B9A01F4
:10337000AB01BC01CE0101967C017BD910E048E095
:10338000242E312CE88EF98E89819A81181619061F
:103390000CF450C2112319F08A899B89A2DC69962A
:1033A0000FB6F894DEBF0FBECDBFDF91CF911F9156
:1033B0000F91FF90EF90DF90CF90BF90AF909F90D4
:1033C0008F907F906F905F904F903F902F900895D7
:1033D000EB81FC818C859D8533E0880F991F3A95A0
:1033E000E1F7E80FF91F8081918190939304809316
:1033F00092042481358142815381509391044093FA
:1034000090044681578150938F0440938E04820F1D
:10341000931F9C01990F440B550B2C8B3D8B4E8BAE
:103420005F8B812C912C54018C899D89AE89BF8939
:1034300088169906AA06BB0638F18C859D85880FEB
:10344000991FED81FE81E80FF91F4E855F85688920
:103450007989808191810E949B0EAC85BD851196F2
:10346000BD87AC8789819A81EC85FD85E817F907CE
:103470000CF4AECF2A893B894E855F8568897989AE
:10348000888D998DF6D880CF1F82609192047091BB
:103490009304CB01072E000CAA0BBB0B8401750112
:1034A000640134E0C30ED11CE11CF11CC816D9061E
:1034B000EA06FB0608F0B3C0209190043091910415
:1034C000A4014C5F5F4F240F351FF901C080D12C40
:1034D000F12CE12C24013501F5E04F0E511C611C4B
:1034E000711C481659066A067B0608F0A3C0209195
:1034F000900430919104F8013596E20FF31F20817A
:10350000D22A2401350126E0420E511C611C711C97
:10351000481659066A067B0608F097C02091900469
:1035200030919104F8013696E20FF31F2081E22AD0
:103530002401350137E0430E511C611C711C4816F3
:1035400059066A067B0608F08BC0209190043091E2
:103550009104F8013796E20FF31F2081260137010D
:10356000722A7501640148E0C40ED11CE11CF11CF3
:103570008C159D05AE05BF0508F41DC1881699067A
:10358000AA06BB0608F077C0809190049091910440
:10359000800F911F68E070E080DBE0919204F09171
:1035A00093049F010F2E000C440B550BD301C20155
:1035B0008C0D9D1DAE1DBF1D281739074A075B07DF
:1035C00008F478C0C216D306E406F50608F05DC01C
:1035D00080919004909191049801285F3F4F820F51
:1035E000931FB2015ADB8091920490919304AC0135
:1035F000092E000C660B770BC416D506E606F706F7
:1036000008F04DC0085F1F4F809190049091910485
:10361000800F911FA20170E060E0F3D5A7C044E0E5
:1036200050E0461B570B480D591D20918E043091D8
:103630008F0449CFE5E0F0E0E61BF70BE00FF11F48
:1036400020918E0430918F0458CFE6E0F0E0E61B25
:10365000F70BE00FF11F20918E0430918F0464CF9F
:10366000E7E0F0E0E61BF70BE00FF11F20918E047E
:1036700030918F0470CF9801261B370B80918E04F8
:1036800090918F04820F931F85CF91012E1B3F0BCA
:10369000200F311F80918E0490918F04A0CFD10113
:1036A000A81BB90BCD01080F191F80918E049091B2
:1036B0008F04AECFBF0168507109601B710BC21639
:1036C000D306E406F50608F062C08091900490915C
:1036D00091049801285F3F4F820F931FDEDA80919B
:1036E000920490919304B101681B790B600F711FD4
:1036F000640D751D80918E0490918F04CEDA8091B7
:10370000920490919304AC0148505109FA01E01BD6
:10371000F10BAC01092E000C660B770BC416D50615
:10372000E606F70608F03DC0809190049091910460
:103730009801285F3F4F820F931FAF0170E060E058
:1037400060D58F832091920430919304F101E21BA4
:10375000F30B9F01200F311F240D351D50E040E079
:10376000682F80918E0490918F0437D58F8361E00C
:1037700070E0CE01079691DA182F38E0430E511C05
:10378000611C711C840C951CA61CB71C4DCE9101AC
:103790002E1B3F0B200F311F80918E0490918F04C0
:1037A0009BCF9101281B390B200F311F80918E0474
:1037B00090918F04C0CF88169906AA06BB0668F5BB
:1037C000601B710B8091900490919104800F911F68
:1037D00064DA8091920490919304B101681B790B93
:1037E000600F711F640D751D80918E0490918F0480
:1037F00054DA8091920490919304AC01092E000C4C
:10380000660B770BC416D506E606F70608F4FACE63
:103810009101281B390BC90146CFC801861B970BA4
:1038200020918E0430918F04B201685F7F4F820F28
:10383000931FDECF1D861C8615CECF93DF93EC0140
:10384000AC0160E070E0CB016EDDAE0161E070E0E4
:1038500080E090E0DF91CF9166CDCF938091980486
:10386000909199048BD9C82F81110BC060E070E052
:10387000CB010E94940961E070E080E090E00E943A
:1038800094098C2FCF9108950F931F9389019A016A
:10389000AB01BC018091980490919904B8D91F9113
:1038A0000F9108954F925F926F927F928F929F92A5
:1038B000AF92BF92CF92DF92EF92FF920F931F933E
:1038C000CF93DF93CDB7DEB763970FB6F894DEBF23
:1038D0000FBECDBF6C018B015A0180919C048823DF
:1038E00009F43DC080919C04882309F442C0809172
:1038F0009B041A821982882309F4C0C0F0E94F2E74
:10390000FFE55F2E66246394712CF12CE12C970166
:103910002C573B4FAE014F5F5F4F61E070E08091ED
:103920009804909199044AD9982E811169C089818F
:103930009A81E80EF91EE114F10409F461C081E0F6
:10394000481A51086108710859F56091A7047091EF
:10395000A8048DEE90E06AD91A82198251C06CE9F0
:1039600074E0809198049091990452D9882309F4C5
:10397000B9CF63960FB6F894DEBF0FBECDBFDF910F
:10398000CF911F910F91FF90EF90DF90CF90BF905C
:10399000AF909F908F907F906F905F904F90089521
:1039A000AAE0EA16F10409F063C049E050E070E0D3
:1039B00060E084E894E029D46091A7047091A804A1
:1039C000882309F452C080918C0490E086179707F1
:1039D00019F6BC018EEE90E029D988E0E4E8F4E025
:1039E000DE01199601900D928A95E1F78091A70466
:1039F0009091A804019699279093A8048093A70416
:103A000081E029813A81121613060CF080E09110B2
:103A1000CAC2882309F4ADCF80919B04811104C0F0
:103A200019861A861B861C8689859A85AB85BC8576
:103A300080319105A105B10508F09BCFFC018827D5
:103A4000EB5DF24E8F4F0C94022AA51D641FD31F0D
:103A5000B91CA91EDC1E951D9D1D791DB81FA71F31
:103A6000B41FB91CB91CB91C641D8FEE90E073CF54
:103A7000BAE0EB16F1040CF44ACFC2CFF12CE12CE2
:103A8000E8E06E2E712C29E030E02C0F3D1F2E0D4A
:103A90003F1DAE014F5F5F4FB3016E197F098091EB
:103AA0009804909199048AD8982E29813A8181119D
:103AB00009C0E20EF31EE114F10421F0E8E0EE1675
:103AC000F1040CF381E09FCFD6011696ED91FC91A5
:103AD00080819181A281B38189839A83AB83BC83E6
:103AE000AE014F5F5F4F64E070E085E190E03ADB4C
:103AF00040CF8D859E8514D92FEF3FEFA90161E05E
:103B000070E0009771F0FC01C080D180E280F3800A
:103B1000A801C701B6010E94140EA701960170E02A
:103B200060E08DE190E051DB24CF4D855E8598010A
:103B3000B6018BE190E073DB1CCF4D855E852FEFE6
:103B40003FEFB6018CE190E0F6CFD6011496ED91EF
:103B5000FC9100811181F80182809380A080B18066
:103B600070E1472E512C612C712C49825A826B8254
:103B70007C8288E090E0A0E0B0E08D839E83AF83FC
:103B8000B8879E012F5E3F4FAE014F5F5F4F68E0E9
:103B900070E080919804909199040E94C015882348
:103BA000D9F010E000E0C80163960FB6F894DEBFCC
:103BB0000FBECDBFDF91CF911F910F91FF90EF907E
:103BC000DF90CF90BF90AF909F908F907F906F903D
:103BD0005F904F900C94D42A89899A89089709F7A5
:103BE000D801ED90FC90B8E0EB0EF11CEE0CFF1C40
:103BF000EE0CFF1CC7010E94382A8C01892B89F228
:103C000049825A826B827C82C7010F2C000CAA0B5E
:103C1000BB0B8D839E83AF83B8879E012F5E3F4F82
:103C2000AE014F5F5F4F68E070E080919804909123
:103C300099040E94C0158111B6CF89899A89089785
:103C400009F0B1CFD6011296ED91FC9140815181DE
:103C500062817381D8014D935D936D937C9313972B
:103C6000448155816681778114964D935D936D9360
:103C70007C931797408551856285738518964D937F
:103C80005D936D937C931B9784859585A685B785F9
:103C9000F80184879587A687B787108A118A128AC8
:103CA000138A84E090E0A0E0B0E0848B958BA68B33
:103CB000B78B8091A8029091A902B0E0A0E0808F1C
:103CC000918FA28FB38FC5010B2C000CAA0BBB0BDD
:103CD000848F958FA68FB78FF401D801909690E0CE
:103CE00080E08A159B055CF19E012F5E3F4FA80185
:103CF000B70180919804909199040E94C015811198
:103D000052CF89899A89E816F90609F04CCFA701A4
:103D100070E060E0C80175D28B8B9E012F5E3F4F33
:103D2000AE014D5E5F4F61E070E08091980490912C
:103D300099040E94C01581E080939B0434CF419187
:103D4000519170E060E04D935D936D937D9301968A
:103D5000C8CF8D859E85AF85B8890097A105B1052F
:103D600021F481E080939A0404CE0E94901600977B
:103D700081F481E090E0A0E0B0E089839A83AB8396
:103D8000BC83AE014F5F5F4F64E070E082E190E082
:103D9000AECEBC01C6010E94EE0819821A821B82B7
:103DA0001C82AE014F5F5F4F64E070E082E190E003
:103DB000D9D98823B1F2DDCDD6011496ED91FC91CD
:103DC0000190F081E02DE084F1848FEF8983E1148C
:103DD000F10409F472C0D7016D907C90C280D38049
:103DE00070E060E090E080E08615970594F083E154
:103DF00090E00E94161610E000E08111BACD061581
:103E000017055CF161E070E0CE0101960E944D164D
:103E1000B0CD9C0143E0220F331F4A95E1F7F70133
:103E2000A281B381A20FB31F1296ED91FC9113975B
:103E3000EE0FFF1FEC0DFD1D0190F081E02D169699
:103E40004D915C91E49F9001E59F300DF49F300D02
:103E50001124620F731F0196C7CFD7011296ED91FF
:103E6000FC91C80123E0880F991F2A95E1F7E80F1C
:103E7000F91FA080B180A281B381AA0FBB1FAC0D36
:103E8000BD1D2D913C9186819781289F4001299FDE
:103E9000900C389F900C1124B401C5010E944D165E
:103EA000582E940150E040E06981C50196D1898384
:103EB00051105FCD0F5F1F4FA2CF70E060E083E134
:103EC00090E00E94161655CD50E040E070E060E0B2
:103ED00081E190E047D981114CCD60E070E0CB01E9
:103EE0000E94B90A80917E04882329F0A80160E02D
:103EF00070E0CB0118DAA80160E070E0CB010E940D
:103F0000C00961E070E080E090E00E94B90A809111
:103F10007E04882331F0A80161E070E080E090E049
:103F200002DAA80161E070E080E090E00E94C00940
:103F300010929C0410929B041092A8041092A70463
:103F400080919804909199040E940E1612CD81E000
:103F500090E09093800480937F0450E040E070E014
:103F600060E086E190E0C3CD81E0F501808301CD82
:103F70008D859E850E9490162FEF3FEFA90161E08D
:103F800070E0009769F0DC01CD90DD90ED90FC9041
:103F9000C701B6010E94740EA701960170E060E0AF
:103FA0008EE190E0C0CDC8010E947116E2CCCF92A4
:103FB000DF92EF92FF92CF93DF93EC01C12CD12CD3
:103FC0007601C701B6010E94B90AAE01C701B60168
:103FD000AAD9AE01C701B6010E94C009809194041C
:103FE00090919504009731F00E94D42A1092950484
:103FF00010929404CA94CD28CE28CF2879F58091C8
:104000009B04F12C882351F050E040E070E060E028
:1040100084E190E0A7D8F82E10929B0480919C0434
:10402000882341F010929C0481E090E09093A902D3
:104030008093A80280919804909199040E9411168F
:1040400080919804909199040E9406168F2DDF911B
:10405000CF91FF90EF90DF90CF900895C12CD12C9D
:104060007601C394AECFCF93DF93EC01AC0160E057
:1040700070E0CB010E94A912AE0161E070E080E027
:1040800090E0DF91CF910C94A91260E070E0CB0139
:104090000E94161361E070E080E090E00C9416132B
:1040A000CF92DF92EF92FF920F931F93CF93DF9304
:1040B000EC016A017B0100E010E098010E94C40E4F
:1040C00001E010E020E030E0B701A601CE010E943F
:1040D000C40EDF91CF911F910F91FF90EF90DF9071
:1040E000CF90089568EE73E080E090E070D390E0A8
:1040F00080E0089526E040E050E16EE070E086EB5D
:1041000094E08DD686EB94E0C0D5892B21F086EB28
:1041100094E0D5D5F7CF90E080E00895CF92DF927C
:10412000EF92FF920F931F93CF93DF936B017A016E
:10413000E9011982188286EB94E0A7D5892B71F1E9
:104140008601CC24C39485E6D82E8091A9048111E0
:1041500011C086EB94E0B3D585369105B1F7C092D6
:10416000A904F801D1928F018881998101969983E0
:104170008883EBCF888199818E159F0578F486EB33
:1041800094E09DD58F3F9807A9F3F80181938F01A3
:1041900088819981019699838883ECCF90E080E0B3
:1041A000DF91CF911F910F91FF90EF90DF90CF9013
:1041B00008950F931F93CF93DF93EA01890186EB54
:1041C00094E00E949F29F801D183C08390E080E0B1
:1041D000DF91CF911F910F910895DC01A40FB51FBE
:1041E000420F531F9D01281B390B2417350710F070
:1041F000862F0895ED91E627F0E0EC51FF4F649192
:10420000F1CF9A01AB016FEFE8CFCF93FC01E60F3E
:10421000F71FE40FF51FC081F4DF91E0C81390E0B1
:10422000892FCF9108958091AA0491E0980F9093DF
:10423000AA04882349F021E030E03093AC042093B5
:10424000AB048093AA04089578940E944904F894DA
:104250008091AA0481508093AA040C949314DF9255
:10426000EF92FF920F931F93CF93DF931F92CDB7DF
:10427000DEB710924B0810924A08DFD20E94E61473
:104280000091D2021091D302F8011182108270E0E5
:1042900060E090E080E00E949B140E943A067894CF
:1042A000C80189559F4F0E949A1482E090E00E94B5
:1042B00097141982AE014F5F5F4F62E070E0F80122
:1042C000828193810E9447148981882329F081E0AB
:1042D000F801E355FF4F80830E94A014F8940E94D8
:1042E0003915F80180819181892B29F481E0E3550A
:1042F000FF4F9081911180E080934A0878947894E0
:104300007801FDEAEF0EF11CDD24D39480914A0878
:10431000811112C00E946D0782E090E00E94981403
:10432000F89490E080E00F90DF91CF911F910F9172
:10433000FF90EF90DF9008951982AE014F5F5F4FBD
:1043400062E070E0F801828193810E947F1489818C
:10435000882311F0F701D082F80180819181892BA7
:1043600091F481E0F7019081911101C080E0809388
:104370004B0890914B0881E0911180E080934A08AE
:104380000E945815C3CF81E0F2CF5058BB27AA270F
:104390000ED00DC1FED030F003D120F031F49F3F9C
:1043A00011F41EF4F3C00EF4E095E7FBE9C0E92F29
:1043B0000FD180F3BA17620773078407950718F0C7
:1043C00071F49EF527C10EF4E0950B2EBA2FA02DA7
:1043D0000B01B90190010C01CA01A0011124FF27B2
:1043E000591B99F0593F50F4503E68F11A16F040AD
:1043F000A22F232F342F4427585FF3CF46953795AC
:104400002795A795F0405395C9F77EF41F16BA0B70
:10441000620B730B840BBAF09150A1F0FF0FBB1F1E
:10442000661F771F881FC2F70EC0BA0F621F731F67
:10443000841F48F4879577956795B795F7959E3FC4
:1044400008F0B3CF9395880F08F09927EE0F979552
:104450008795089571D008F481E0089504D0689498
:10446000B111D9C00895BCD088F09F5790F0B92FF2
:104470009927B751A0F0D1F0660F771F881F991FB9
:104480001AF0BA95C9F712C0B13081F0C3D0B1E0CB
:104490000895C0C0672F782F8827B85F39F0B93FDB
:1044A000CCF3869577956795B395D9F73EF49095BB
:1044B0008095709561957F4F8F4F9F4F0895E89439
:1044C00009C097FB3EF490958095709561957F4F5C
:1044D0008F4F9F4F9923A9F0F92F96E9BB2793950A
:1044E000F695879577956795B795F111F8CFFAF41A
:1044F000BB0F11F460FF1BC06F5F7F4F8F4F9F4F4B
:1045000016C0882311F096E911C0772321F09EE8A8
:10451000872F762F05C0662371F096E8862F70E00E
:1045200060E02AF09A95660F771F881FDAF7880FE8
:104530009695879597F90895990F0008550FAA0B3E
:10454000E0E8FEEF16161706E807F907C0F01216A6
:104550001306E407F50798F0621B730B840B950BA9
:1045600039F40A2661F0232B242B252B21F40895FE
:104570000A2609F4A140A6958FEF811D811D08959B
:1045800097F99F6780E870E060E008959FEF80EC06
:10459000089500240A9416161706180609060895A9
:1045A00000240A9412161306140605060895092E0F
:1045B0000394000C11F4882352F0BB0F40F4BF2B7E
:1045C00011F460FF04C06F5F7F4F8F4F9F4F0895BE
:1045D00057FD9058440F551F59F05F3F71F04795B4
:1045E000880F97FB991F61F09F3F79F08795089599
:1045F000121613061406551FF2CF4695F1DF08C0B8
:10460000161617061806991FF1CF869571056105D4
:1046100008940895E894BB2766277727CB0197F97C
:1046200008958ADF08F48FEF08950BD0C0CFB1DF73
:1046300028F0B6DF18F0952309F0A2CFA7CF1124F8
:10464000EACFC6DFA0F3959FD1F3950F50E0551F39
:10465000629FF001729FBB27F00DB11D639FAA27D7
:10466000F00DB11DAA1F649F6627B00DA11D661F26
:10467000829F2227B00DA11D621F739FB00DA11D47
:10468000621F839FA00D611D221F749F3327A00D01
:10469000611D231F849F600D211D822F762F6A2F9D
:1046A00011249F5750408AF0E1F088234AF0EE0F22
:1046B000FF1FBB1F661F771F881F91505040A9F72F
:1046C0009E3F510570F05CCFA6CF5F3FECF3983E64
:1046D000DCF3869577956795B795F795E7959F5F96
:1046E000C1F7FE2B880F911D9695879597F9089530
:1046F0001F920F920FB60F9211242F933F938F9317
:104700009F93AF93BF938091AE049091AF04A0911B
:10471000B004B091B1043091AD0423E0230F2D37E4
:1047200058F50196A11DB11D2093AD048093AE04F0
:104730009093AF04A093B004B093B1048091B204FD
:104740009091B304A091B404B091B5040196A11D59
:10475000B11D8093B2049093B304A093B404B093BA
:10476000B504BF91AF919F918F913F912F910F9081
:104770000FBE0F901F90189526E8230F0296A11DDB
:10478000B11DD2CF3FB7F8948091B2049091B30499
:10479000A091B404B091B50426B5A89B05C02F3FE5
:1047A00019F00196A11DB11D3FBFBA2FA92F982F57
:1047B0008827BC01CD01620F711D811D911D42E052
:1047C000660F771F881F991F4A95D1F708958F921A
:1047D0009F92AF92BF92CF92DF92EF92FF926B01C6
:1047E0007C01D0DF4B015C01C114D104E104F10470
:1047F000D9F0D2D5C7DF681979098A099B09683EC3
:1048000073408105910580F321E0C21AD108E108C7
:10481000F10888EE880E83E0981EA11CB11CC1141B
:10482000D104E104F10431F7FF90EF90DF90CF90D5
:10483000BF90AF909F908F900895789484B58260D8
:1048400084BD84B5816084BD85B5826085BD85B534
:10485000816085BDEEE6F0E0808181608083E1E8E3
:10486000F0E010828081826080838081816080831B
:10487000E0E8F0E0808181608083E1EBF0E080811E
:1048800084608083E0EBF0E0808181608083E1E9F7
:10489000F0E0808182608083808181608083E0E9B4
:1048A000F0E0808181608083E1EAF0E080818260D5
:1048B0008083808181608083E0EAF0E08081816094
:1048C0008083E1E2F1E08081826080838081816089
:1048D0008083E0E2F1E0808181608083EAE7F0E0BC
:1048E0008081846080838081826080838081816018
:1048F00080838081806880831092C1000895863310
:1049000008F0865320917B00982F9870277F922B78
:1049100090937B002091AA0290E4299F900111249A
:104920008770822B80937C0080917A0080648093D2
:104930007A0080917A0086FDFCCF8091780090917A
:10494000790008951F93CF93DF93182FEB0161E057
:1049500033D1209731F460E0812FDF91CF911F9107
:1049600067C1CF3FD10511F461E0F6CFE12FF0E050
:10497000EC51FE4FE491E150E23108F0B2C0F0E0BA
:104980008827EB53FB4D8F4F3DC5D724DF24E4240C
:10499000EE24F824712502250A2512251C2526253A
:1049A00030253F254925712553255D25672584B58B
:1049B000806884BDC7BDDF91CF911F91089584B5F4
:1049C000806284BDC8BDF7CF8091800080688093ED
:1049D0008000D0938900C0938800EDCF8091800043
:1049E000806280938000D0938B00C0938A00E3CFD5
:1049F00080918000886080938000D0938D00C09368
:104A00008C00D9CF8091B00080688093B000C093B3
:104A1000B300D1CF8091B00080628093B000C0938A
:104A2000B400C9CF80919000806880939000D093AB
:104A30009900C0939800BFCF8091900080628093CE
:104A40009000D0939B00C0939A00B5CF80919000C6
:104A5000886080939000D0939D00C0939C00ABCF62
:104A60008091A00080688093A0008091A0008F7B3F
:104A70008093A000D093A900C093A8009CCF809100
:104A8000A00080628093A000D093AB00C093AA00E6
:104A900092CF8091A00088608093A000D093AD0059
:104AA000C093AC0088CF8091200180688093200162
:104AB000D0932901C09328017ECF8091200180628C
:104AC00080932001D0932B01C0932A0174CF809151
:104AD0002001886080932001D0932D01C0932C0188
:104AE0006ACFC038D1050CF03FCF35CF815082312D
:104AF00008F059C0E82FF0E08827EF57FA4D8F4FA4
:104B000081C4A125A525932599259D25D325A825D3
:104B1000AE25B225B825BC25C025C625CA25D32576
:104B2000CE25D425D825809180008F778093800072
:104B30000895809180008F7DF9CF80918000877FDC
:104B4000F5CF84B58F7784BD089584B58F7DFBCF75
:104B50008091B0008F778093B00008958091B0006D
:104B60008F7DF9CF809190008F778093900008958A
:104B7000809190008F7DF9CF80919000877FF5CF55
:104B80008091A0008F778093A00008958091A0006D
:104B90008F7DF9CF8091A000877FF5CF8091200194
:104BA0008F77809320010895809120018F7DF9CF28
:104BB00080912001877FF5CFCF93DF9390E0FC01B8
:104BC000E65DFD4F249180599D4FFC01849188231F
:104BD000C9F090E0880F991FFC01E053FD4FA591AB
:104BE000B491FC01EA54FD4FC591D49161110DC0FF
:104BF0009FB7F8948C91209582238C9388812823E9
:104C000028839FBFDF91CF910895623051F49FB701
:104C1000F8943C91822F809583238C93E8812E2BEE
:104C2000EFCF8FB7F894EC912E2B2C938FBFEACF58
:104C30001F93CF93DF93282F30E0F901EC51FE4F03
:104C40008491F901E65DFD4FD491F901E059FD4FE2
:104C5000C491CC23A1F0162F811148DFEC2FF0E096
:104C6000EE0FFF1FEA54FD4FA591B4918FB7F89452
:104C7000EC91111108C0D095DE23DC938FBFDF913A
:104C8000CF911F910895DE2BF8CFFC01918D228DDD
:104C9000892F90E0805C9F4F821B91098F73992729
:104CA0000895FC01918D828D981731F0828DE80F67
:104CB000F11D858D90E008958FEF9FEF0895FC0121
:104CC000918D828D981761F0A28DAE0FBF2FB11D0F
:104CD0005D968C91928D9F5F9F73928F90E0089567
:104CE0008FEF9FEF0895FC01538D448D252F30E009
:104CF000842F90E0821B930B541710F0CF960895E9
:104D000001970895FC01A48DA80FB92FB11DA35AD6
:104D1000BF4F2C91848D90E001968F739927848FDB
:104D2000A689B7892C93A089B1898C9183708064FE
:104D30008C93938D848D981306C00288F389E02D9F
:104D400080818F7D80830895CF93DF93EC01888DE0
:104D50008823B1F0AA89BB89E889F9898C9185FDFE
:104D600003C0808186FD0CC00FB607FCF7CF8C9185
:104D700085FFF2CF808185FFEDCFCE01C3DFEACF83
:104D8000DF91CF910895EF92FF920F931F93CF93EE
:104D9000DF93EC0181E0888F9B8D8C8D98131AC076
:104DA000E889F989808185FF15C09FB7F894EE895D
:104DB000FF896083E889F9898081837080648083BA
:104DC0009FBF81E090E0DF91CF911F910F91FF9005
:104DD000EF900895F62E0B8D10E00F5F1F4F0F73AD
:104DE0001127E02E8C8D8E110BC00FB607FCFACF69
:104DF000E889F989808185FFF5CFCE0183DFF2CF85
:104E0000EB8DEC0FFD2FF11DE35AFF4FF0829FB7A2
:104E1000F8940B8FEA89FB8980818062D0CFCF9292
:104E2000DF92EF92FF921F93CF93DF93EC016A0121
:104E30007B01122FE889F98982E08083C11481EE19
:104E4000D806E104F10499F060E079E08DE390E0A8
:104E5000A7019601B5D22150310941095109569552
:104E6000479537952795211580E1380790F0E88917
:104E7000F989108260E874E88EE190E0A70196015C
:104E80009FD22150310941095109569547953795CF
:104E90002795EC85FD853083EE85FF852083188E70
:104EA000EC89FD891083EA89FB8980818061808398
:104EB000EA89FB89808188608083EA89FB89808117
:104EC00080688083EA89FB8980818F7D8083DF9180
:104ED000CF911F91FF90EF90DF90CF9008951F9298
:104EE0000F920FB60F9211240BB60F922F938F9340
:104EF0009F93EF93FF93E091C604F091C7048081E4
:104F0000E091CC04F091CD0482FD1DC09081809190
:104F1000CF048F5F8F732091D004821741F0E0910E
:104F2000CF04F0E0EA54FB4F958F8093CF04FF91BC
:104F3000EF919F918F912F910F900BBE0F900FBE0D
:104F40000F901F9018958081F2CF1F920F920FB68D
:104F50000F9211240BB60F922F933F934F935F93B1
:104F60006F937F938F939F93AF93BF93EF93FF9331
:104F700086EB94E0C7DEFF91EF91BF91AF919F91D7
:104F80008F917F916F915F914F913F912F910F90F2
:104F90000BBE0F900FBE0F901F901895E6EBF4E03C
:104FA0001382128288EE93E0A0E0B0E084839583C0
:104FB000A683B7838FEA93E09183808385EC90E0AA
:104FC0009587848784EC90E09787868780EC90E0D3
:104FD000918B808B81EC90E0938B828B82EC90E0C4
:104FE000958B848B86EC90E0978B868B118E128E3E
:104FF000138E148E08951F920F920FB60F921124E4
:105000000BB60F922F938F939F93EF93FF93E091A3
:105010006305F09164058081E0916905F0916A056E
:1050200082FD1DC0908180916C058F5F8F732091F0
:105030006D05821741F0E0916C05F0E0ED5AFA4FF2
:10504000958F80936C05FF91EF919F918F912F9198
:105050000F900BBE0F900FBE0F901F901895808180
:10506000F2CF1F920F920FB60F9211240BB60F9230
:105070002F933F934F935F936F937F938F939F9360
:10508000AF93BF93EF93FF9383E595E03BDEFF91F2
:10509000EF91BF91AF919F918F917F916F915F91B0
:1050A0004F913F912F910F900BBE0F900FBE0F901D
:1050B0001F901895E3E5F5E01382128288EE93E0E5
:1050C000A0E0B0E084839583A683B7838FEA93E062
:1050D000918380838DEC90E0958784878CEC90E0C1
:1050E0009787868788EC90E0918B808B89EC90E0A5
:1050F000938B828B8AEC90E0958B848B8EEC90E086
:10510000978B868B118E128E138E148E08951F929C
:105110000F920FB60F9211240BB60F922F938F930D
:105120009F93EF93FF93E0910006F0910106808139
:10513000E0910606F091070682FD1DC090818091E6
:1051400009068F5F8F7320910A06821741F0E09164
:105150000906F0E0E051FA4F958F80930906FF9120
:10516000EF919F918F912F910F900BBE0F900FBEDB
:105170000F901F9018958081F2CF1F920F920FB65B
:105180000F9211240BB60F922F933F934F935F937F
:105190006F937F938F939F93AF93BF93EF93FF93FF
:1051A00080EF95E0AFDDFF91EF91BF91AF919F91BF
:1051B0008F917F916F915F914F913F912F910F90C0
:1051C0000BBE0F900FBE0F901F901895E0EFF5E00B
:1051D0001382128288EE93E0A0E0B0E0848395838E
:1051E000A683B7838FEA93E09183808385ED90E077
:1051F0009587848784ED90E09787868780ED90E09F
:10520000918B808B81ED90E0938B828B82ED90E08F
:10521000958B848B86ED90E0978B868B118E128E0A
:10522000138E148E08951F920F920FB60F921124B1
:105230000BB60F922F938F939F93EF93FF93E09171
:105240009D06F0919E068081E091A306F091A40650
:1052500082FD1DC090818091A6068F5F8F73209183
:10526000A706821741F0E091A606F0E0E357F94F58
:10527000958F8093A606FF91EF919F918F912F912B
:105280000F900BBE0F900FBE0F901F90189580814E
:10529000F2CF1F920F920FB60F9211240BB60F92FE
:1052A0002F933F934F935F936F937F938F939F932E
:1052B000AF93BF93EF93FF938DE896E023DDFF91CB
:1052C000EF91BF91AF919F918F917F916F915F917E
:1052D0004F913F912F910F900BBE0F900FBE0F90EB
:1052E0001F901895EDE8F6E01382128288EE93E0A5
:1052F000A0E0B0E084839583A683B7838FEA93E030
:105300009183808385E391E09587848784E391E0AE
:105310009787868780E391E0918B808B81E391E092
:10532000938B828B82E391E0958B848B86E391E073
:10533000978B868B118E128E138E148E0895AF92DA
:10534000BF92CF92DF92EF92FF920F931F93CF9372
:10535000DF936C017B018B01040F151FEB015E01D4
:10536000AE18BF08C017D10759F06991D601ED9169
:10537000FC910190F081E02DC6011995892B79F7F8
:10538000C501DF91CF911F910F91FF90EF90DF90BA
:10539000CF90BF90AF900895089597FB072E16F415
:1053A000009406D077FD08D035D007FC05D03EF438
:1053B000909581959F4F0895709561957F4F0895C1
:1053C000A1E21A2EAA1BBB1BFD010DC0AA1FBB1F09
:1053D000EE1FFF1FA217B307E407F50720F0A21B7B
:1053E000B30BE40BF50B661F771F881F991F1A94E8
:1053F00069F760957095809590959B01AC01BD0112
:10540000CF010895EE0FFF1F881F8BBF0790F69105
:10541000E02D1994AA1BBB1B51E107C0AA1FBB1F9B
:10542000A617B70710F0A61BB70B881F991F5A9530
:10543000A9F780959095BC01CD0108950F931F9316
:10544000CF93DF93869F8001879F100D969F100D4D
:105450001124C8010DD0EC01009721F0A80170E0E3
:1054600060E034D1CE01DF91CF911F910F9108956B
:105470000F931F93CF93DF938230910510F482E056
:1054800090E0E0914E08F0914F0830E020E0B0E06D
:10549000A0E0309799F42115310509F44AC0281B82
:1054A000390B24303105D8F58A819B81611571054E
:1054B00089F1FB0193838283FE0111C040815181F8
:1054C0000281138148175907E0F04817590799F4EA
:1054D000109761F012960C93129713961C933296C4
:1054E000CF01DF91CF911F910F91089500934E0846
:1054F00010934F08F4CF2115310551F0421753078F
:1055000038F0A901DB019A01BD01DF01F801C1CF2B
:10551000EF01F9CF90934F0880934E08CDCFFE0155
:10552000E20FF31F8193919322503109398328832D
:10553000D7CF20914C0830914D08232B41F4209176
:1055400002023091030230934D0820934C082091C1
:105550000002309101022115310541F42DB73EB70B
:105560004091040250910502241B350BE0914C0838
:10557000F0914D08E217F307A0F42E1B3F0B2817FC
:10558000390778F0AC014E5F5F4F2417350748F0BC
:105590004E0F5F1F50934D0840934C088193919399
:1055A0009FCFF0E0E0E09CCFCF93DF930097E9F04E
:1055B000FC01329713821282A0914E08B0914F08DD
:1055C000ED0130E020E01097A1F420813181820FBD
:1055D000931F20914C0830914D082817390709F086
:1055E00061C0F0934D08E0934C08DF91CF9108958E
:1055F000EA01CE17DF07E8F54A815B819E0141157C
:105600005105B1F7E901FB83EA8349915991C40F30
:10561000D51FEC17FD0761F4808191810296840FFC
:10562000951FE90199838883828193819B838A8373
:10563000F0E0E0E012968D919C9113970097B9F5F8
:105640002D913C911197CD010296820F931F2091CD
:105650004C0830914D082817390739F6309751F525
:1056600010924F0810924E08B0934D08A0934C082A
:10567000BCCFD383C28340815181840F951FC8174B
:10568000D90761F44E5F5F4F88819981480F591F98
:10569000518340838A819B819383828321153105C5
:1056A00009F0B0CFF0934F08E0934E089ECFFD0174
:1056B000DC01C0CF13821282D7CFFB01DC0102C014
:1056C00001900D9241505040D8F70895DC0101C07F
:1056D0006D9341505040E0F70895FB01DC018D913E
:1056E000019080190110D9F3990B0895F894FFCF18
:1056F00000005008800001000A028A020000000039
:105700000700060016028A070000000002002A07B0
:105710000F000000010038070E00000001004407E0
:1057200010000000040084070B000000020088073E
:10573000080000000200D402DB02E502E402ED02F0
:10574000EC02F602F502FE02080313031903230319
:105750002C0340034B035603040004000100010026
:105760000200020004000400010004000200020024
:10577000040008000C000E001000000080BF0000B4
:105780000000903EFA3E0000803F00000000000054
:10579000994200000C42010101000153696D756CD2
:1057A0006174696F6E2066696E697368656400462E
:1057B0006978656453746570446973637265746570
:1057C000000192077265616C5F54007265616C3311
:1057D000325F540075696E74385F540075696E7479
:1057E00031365F540075696E7433325F5400626FF6
:1057F0006F6C65616E5F540066636E5F63616C6CB5
:105800005F5400696E745F5400706F696E746572E6
:105810005F5400616374696F6E5F540074696D65F5
:10582000725F75696E7433325F706169725F5400C4
:105830006E79716377696C79736C006E73696462F9
:10584000776333316A0067716372696E6F6F786B6B
:10585000002D77002D69676E6F72652D617267008C
:10586000436F756C64206E6F74206372656174653C
:105870002065787465726E616C206D6F646520754B
:1058800073657220646174612E20204F7574206FDF
:1058900066206D656D6F72792E0A0000000000C3EE
:0E58A000269F297326A42645265F2651260042
:00000001FF
